{
  "_format": "hh-sol-artifact-1",
  "contractName": "Greeter",
  "sourceName": "contracts/Greeter.sol",
  "abi": [
    {
      "inputs": [
        {
          "internalType": "string",
          "name": "_greeting",
          "type": "string"
        }
      ],
      "stateMutability": "nonpayable",
      "type": "constructor"
    },
    {
      "inputs": [],
      "name": "delGreeting",
      "outputs": [],
      "stateMutability": "nonpayable",
      "type": "function"
    },
    {
      "inputs": [],
      "name": "greet",
      "outputs": [
        {
          "internalType": "string",
          "name": "",
          "type": "string"
        }
      ],
      "stateMutability": "view",
      "type": "function"
    },
    {
      "inputs": [
        {
          "internalType": "string",
          "name": "_greeting",
          "type": "string"
        }
      ],
      "name": "setGreeting",
      "outputs": [],
      "stateMutability": "nonpayable",
      "type": "function"
    }
  ],
  "bytecode": "0x60806040523480156200001157600080fd5b5060405162000de238038062000de2833981810160405281019062000037919062000314565b6200006760405180606001604052806022815260200162000dc060229139826200012360201b620002491760201c565b80600090805190602001906200007f929190620001f2565b506040518060400160405280600481526020017f746573740000000000000000000000000000000000000000000000000000000081525060029080519060200190620000cd929190620001f2565b506040518060400160405280600581526020017f7465737432000000000000000000000000000000000000000000000000000000815250600390805190602001906200011b929190620001f2565b505062000561565b620001c582826040516024016200013c9291906200039a565b6040516020818303038152906040527f4b5c4277000000000000000000000000000000000000000000000000000000007bffffffffffffffffffffffffffffffffffffffffffffffffffffffff19166020820180517bffffffffffffffffffffffffffffffffffffffffffffffffffffffff8381831617835250505050620001c960201b60201c565b5050565b60008151905060006a636f6e736f6c652e6c6f679050602083016000808483855afa5050505050565b828054620002009062000486565b90600052602060002090601f01602090048101928262000224576000855562000270565b82601f106200023f57805160ff191683800117855562000270565b8280016001018555821562000270579182015b828111156200026f57825182559160200191906001019062000252565b5b5090506200027f919062000283565b5090565b5b808211156200029e57600081600090555060010162000284565b5090565b6000620002b9620002b384620003fe565b620003d5565b905082815260208101848484011115620002d257600080fd5b620002df84828562000450565b509392505050565b600082601f830112620002f957600080fd5b81516200030b848260208601620002a2565b91505092915050565b6000602082840312156200032757600080fd5b600082015167ffffffffffffffff8111156200034257600080fd5b6200035084828501620002e7565b91505092915050565b6000620003668262000434565b6200037281856200043f565b93506200038481856020860162000450565b6200038f8162000550565b840191505092915050565b60006040820190508181036000830152620003b6818562000359565b90508181036020830152620003cc818462000359565b90509392505050565b6000620003e1620003f4565b9050620003ef8282620004bc565b919050565b6000604051905090565b600067ffffffffffffffff8211156200041c576200041b62000521565b5b620004278262000550565b9050602081019050919050565b600081519050919050565b600082825260208201905092915050565b60005b838110156200047057808201518184015260208101905062000453565b8381111562000480576000848401525b50505050565b600060028204905060018216806200049f57607f821691505b60208210811415620004b657620004b5620004f2565b5b50919050565b620004c78262000550565b810181811067ffffffffffffffff82111715620004e957620004e862000521565b5b80604052505050565b7f4e487b7100000000000000000000000000000000000000000000000000000000600052602260045260246000fd5b7f4e487b7100000000000000000000000000000000000000000000000000000000600052604160045260246000fd5b6000601f19601f8301169050919050565b61084f80620005716000396000f3fe608060405234801561001057600080fd5b50600436106100415760003560e01c8063051d795514610046578063a413686214610050578063cfae32171461006c575b600080fd5b61004e61008a565b005b61006a60048036038101906100659190610551565b6100f0565b005b6100746101b7565b60405161008191906105cb565b60405180910390f35b6100c86040518060400160405280601581526020017f64656c6574696e6720746865206772656574696e6700000000000000000000008152506102e5565b60405180602001604052806000815250600090805190602001906100ed929190610446565b50565b61019d6040518060600160405280602381526020016107f7602391396000805461011990610724565b80601f016020809104026020016040519081016040528092919081815260200182805461014590610724565b80156101925780601f1061016757610100808354040283529160200191610192565b820191906000526020600020905b81548152906001019060200180831161017557829003601f168201915b50505050508361037e565b80600090805190602001906101b3929190610446565b5050565b6060600080546101c690610724565b80601f01602080910402602001604051908101604052809291908181526020018280546101f290610724565b801561023f5780601f106102145761010080835404028352916020019161023f565b820191906000526020600020905b81548152906001019060200180831161022257829003601f168201915b5050505050905090565b6102e1828260405160240161025f9291906105ed565b6040516020818303038152906040527f4b5c4277000000000000000000000000000000000000000000000000000000007bffffffffffffffffffffffffffffffffffffffffffffffffffffffff19166020820180517bffffffffffffffffffffffffffffffffffffffffffffffffffffffff838183161783525050505061041d565b5050565b61037b816040516024016102f991906105cb565b6040516020818303038152906040527f41304fac000000000000000000000000000000000000000000000000000000007bffffffffffffffffffffffffffffffffffffffffffffffffffffffff19166020820180517bffffffffffffffffffffffffffffffffffffffffffffffffffffffff838183161783525050505061041d565b50565b61041883838360405160240161039693929190610624565b6040516020818303038152906040527f2ced7cef000000000000000000000000000000000000000000000000000000007bffffffffffffffffffffffffffffffffffffffffffffffffffffffff19166020820180517bffffffffffffffffffffffffffffffffffffffffffffffffffffffff838183161783525050505061041d565b505050565b60008151905060006a636f6e736f6c652e6c6f679050602083016000808483855afa5050505050565b82805461045290610724565b90600052602060002090601f01602090048101928261047457600085556104bb565b82601f1061048d57805160ff19168380011785556104bb565b828001600101855582156104bb579182015b828111156104ba57825182559160200191906001019061049f565b5b5090506104c891906104cc565b5090565b5b808211156104e55760008160009055506001016104cd565b5090565b60006104fc6104f784610695565b610670565b90508281526020810184848401111561051457600080fd5b61051f8482856106e2565b509392505050565b600082601f83011261053857600080fd5b81356105488482602086016104e9565b91505092915050565b60006020828403121561056357600080fd5b600082013567ffffffffffffffff81111561057d57600080fd5b61058984828501610527565b91505092915050565b600061059d826106c6565b6105a781856106d1565b93506105b78185602086016106f1565b6105c0816107e5565b840191505092915050565b600060208201905081810360008301526105e58184610592565b905092915050565b600060408201905081810360008301526106078185610592565b9050818103602083015261061b8184610592565b90509392505050565b6000606082019050818103600083015261063e8186610592565b905081810360208301526106528185610592565b905081810360408301526106668184610592565b9050949350505050565b600061067a61068b565b90506106868282610756565b919050565b6000604051905090565b600067ffffffffffffffff8211156106b0576106af6107b6565b5b6106b9826107e5565b9050602081019050919050565b600081519050919050565b600082825260208201905092915050565b82818337600083830152505050565b60005b8381101561070f5780820151818401526020810190506106f4565b8381111561071e576000848401525b50505050565b6000600282049050600182168061073c57607f821691505b602082108114156107505761074f610787565b5b50919050565b61075f826107e5565b810181811067ffffffffffffffff8211171561077e5761077d6107b6565b5b80604052505050565b7f4e487b7100000000000000000000000000000000000000000000000000000000600052602260045260246000fd5b7f4e487b7100000000000000000000000000000000000000000000000000000000600052604160045260246000fd5b6000601f19601f830116905091905056fe4368616e67696e67206772656574696e672066726f6d202725732720746f2027257327a26469706673582212209b2580dc81f5b246fa25c72af3b98d7e3fdb503ab86fd2f34f26aba4284cd50264736f6c634300080400334465706c6f79696e67206120477265657465722077697468206772656574696e673a",
  "linkReferences": {},
  "deployedLinkReferences": {}
}