{
  "_format": "hh-sol-artifact-1",
  "contractName": "Greeter",
  "sourceName": "contracts/Greeter.sol",
  "abi": [
    {
      "inputs": [
        {
          "internalType": "string",
          "name": "_greeting",
          "type": "string"
        }
      ],
      "stateMutability": "nonpayable",
      "type": "constructor"
    },
    {
      "inputs": [],
      "name": "delGreeting",
      "outputs": [],
      "stateMutability": "nonpayable",
      "type": "function"
    },
    {
      "inputs": [],
      "name": "greet",
      "outputs": [
        {
          "internalType": "string",
          "name": "",
          "type": "string"
        }
      ],
      "stateMutability": "view",
      "type": "function"
    },
    {
      "inputs": [
        {
          "internalType": "string",
          "name": "_greeting",
          "type": "string"
        }
      ],
      "name": "setGreeting",
      "outputs": [],
      "stateMutability": "nonpayable",
      "type": "function"
    }
  ],
  "bytecode": "0x60806040523480156200001157600080fd5b5060405162000d4638038062000d46833981810160405281019062000037919062000278565b6200006760405180606001604052806022815260200162000d2460229139826200008760201b620002491760201c565b80600090805190602001906200007f92919062000156565b5050620004c5565b620001298282604051602401620000a0929190620002fe565b6040516020818303038152906040527f4b5c4277000000000000000000000000000000000000000000000000000000007bffffffffffffffffffffffffffffffffffffffffffffffffffffffff19166020820180517bffffffffffffffffffffffffffffffffffffffffffffffffffffffff83818316178352505050506200012d60201b60201c565b5050565b60008151905060006a636f6e736f6c652e6c6f679050602083016000808483855afa5050505050565b8280546200016490620003ea565b90600052602060002090601f016020900481019282620001885760008555620001d4565b82601f10620001a357805160ff1916838001178555620001d4565b82800160010185558215620001d4579182015b82811115620001d3578251825591602001919060010190620001b6565b5b509050620001e39190620001e7565b5090565b5b8082111562000202576000816000905550600101620001e8565b5090565b60006200021d620002178462000362565b62000339565b9050828152602081018484840111156200023657600080fd5b62000243848285620003b4565b509392505050565b600082601f8301126200025d57600080fd5b81516200026f84826020860162000206565b91505092915050565b6000602082840312156200028b57600080fd5b600082015167ffffffffffffffff811115620002a657600080fd5b620002b4848285016200024b565b91505092915050565b6000620002ca8262000398565b620002d68185620003a3565b9350620002e8818560208601620003b4565b620002f381620004b4565b840191505092915050565b600060408201905081810360008301526200031a8185620002bd565b90508181036020830152620003308184620002bd565b90509392505050565b60006200034562000358565b905062000353828262000420565b919050565b6000604051905090565b600067ffffffffffffffff82111562000380576200037f62000485565b5b6200038b82620004b4565b9050602081019050919050565b600081519050919050565b600082825260208201905092915050565b60005b83811015620003d4578082015181840152602081019050620003b7565b83811115620003e4576000848401525b50505050565b600060028204905060018216806200040357607f821691505b602082108114156200041a576200041962000456565b5b50919050565b6200042b82620004b4565b810181811067ffffffffffffffff821117156200044d576200044c62000485565b5b80604052505050565b7f4e487b7100000000000000000000000000000000000000000000000000000000600052602260045260246000fd5b7f4e487b7100000000000000000000000000000000000000000000000000000000600052604160045260246000fd5b6000601f19601f8301169050919050565b61084f80620004d56000396000f3fe608060405234801561001057600080fd5b50600436106100415760003560e01c8063051d795514610046578063a413686214610050578063cfae32171461006c575b600080fd5b61004e61008a565b005b61006a60048036038101906100659190610551565b6100f0565b005b6100746101b7565b60405161008191906105cb565b60405180910390f35b6100c86040518060400160405280601581526020017f64656c6574696e6720746865206772656574696e6700000000000000000000008152506102e5565b60405180602001604052806000815250600090805190602001906100ed929190610446565b50565b61019d6040518060600160405280602381526020016107f7602391396000805461011990610724565b80601f016020809104026020016040519081016040528092919081815260200182805461014590610724565b80156101925780601f1061016757610100808354040283529160200191610192565b820191906000526020600020905b81548152906001019060200180831161017557829003601f168201915b50505050508361037e565b80600090805190602001906101b3929190610446565b5050565b6060600080546101c690610724565b80601f01602080910402602001604051908101604052809291908181526020018280546101f290610724565b801561023f5780601f106102145761010080835404028352916020019161023f565b820191906000526020600020905b81548152906001019060200180831161022257829003601f168201915b5050505050905090565b6102e1828260405160240161025f9291906105ed565b6040516020818303038152906040527f4b5c4277000000000000000000000000000000000000000000000000000000007bffffffffffffffffffffffffffffffffffffffffffffffffffffffff19166020820180517bffffffffffffffffffffffffffffffffffffffffffffffffffffffff838183161783525050505061041d565b5050565b61037b816040516024016102f991906105cb565b6040516020818303038152906040527f41304fac000000000000000000000000000000000000000000000000000000007bffffffffffffffffffffffffffffffffffffffffffffffffffffffff19166020820180517bffffffffffffffffffffffffffffffffffffffffffffffffffffffff838183161783525050505061041d565b50565b61041883838360405160240161039693929190610624565b6040516020818303038152906040527f2ced7cef000000000000000000000000000000000000000000000000000000007bffffffffffffffffffffffffffffffffffffffffffffffffffffffff19166020820180517bffffffffffffffffffffffffffffffffffffffffffffffffffffffff838183161783525050505061041d565b505050565b60008151905060006a636f6e736f6c652e6c6f679050602083016000808483855afa5050505050565b82805461045290610724565b90600052602060002090601f01602090048101928261047457600085556104bb565b82601f1061048d57805160ff19168380011785556104bb565b828001600101855582156104bb579182015b828111156104ba57825182559160200191906001019061049f565b5b5090506104c891906104cc565b5090565b5b808211156104e55760008160009055506001016104cd565b5090565b60006104fc6104f784610695565b610670565b90508281526020810184848401111561051457600080fd5b61051f8482856106e2565b509392505050565b600082601f83011261053857600080fd5b81356105488482602086016104e9565b91505092915050565b60006020828403121561056357600080fd5b600082013567ffffffffffffffff81111561057d57600080fd5b61058984828501610527565b91505092915050565b600061059d826106c6565b6105a781856106d1565b93506105b78185602086016106f1565b6105c0816107e5565b840191505092915050565b600060208201905081810360008301526105e58184610592565b905092915050565b600060408201905081810360008301526106078185610592565b9050818103602083015261061b8184610592565b90509392505050565b6000606082019050818103600083015261063e8186610592565b905081810360208301526106528185610592565b905081810360408301526106668184610592565b9050949350505050565b600061067a61068b565b90506106868282610756565b919050565b6000604051905090565b600067ffffffffffffffff8211156106b0576106af6107b6565b5b6106b9826107e5565b9050602081019050919050565b600081519050919050565b600082825260208201905092915050565b82818337600083830152505050565b60005b8381101561070f5780820151818401526020810190506106f4565b8381111561071e576000848401525b50505050565b6000600282049050600182168061073c57607f821691505b602082108114156107505761074f610787565b5b50919050565b61075f826107e5565b810181811067ffffffffffffffff8211171561077e5761077d6107b6565b5b80604052505050565b7f4e487b7100000000000000000000000000000000000000000000000000000000600052602260045260246000fd5b7f4e487b7100000000000000000000000000000000000000000000000000000000600052604160045260246000fd5b6000601f19601f830116905091905056fe4368616e67696e67206772656574696e672066726f6d202725732720746f2027257327a26469706673582212208f3d11ca6eae7ae551970efc6babb550203e2d871e6d07204c94e997d5a65b6e64736f6c634300080400334465706c6f79696e67206120477265657465722077697468206772656574696e673a",
  "linkReferences": {},
  "deployedLinkReferences": {}
}