{
  "_format": "hh-sol-artifact-1",
  "contractName": "Greeter",
  "sourceName": "contracts/Greeter.sol",
  "abi": [
    {
      "inputs": [
        {
          "internalType": "string",
          "name": "_greeting",
          "type": "string"
        }
      ],
      "stateMutability": "nonpayable",
      "type": "constructor"
    },
    {
      "inputs": [],
      "name": "delGreeting",
      "outputs": [],
      "stateMutability": "nonpayable",
      "type": "function"
    },
    {
      "inputs": [],
      "name": "greet",
      "outputs": [
        {
          "internalType": "string",
          "name": "",
          "type": "string"
        }
      ],
      "stateMutability": "view",
      "type": "function"
    },
    {
      "inputs": [],
      "name": "greeting",
      "outputs": [
        {
          "internalType": "string",
          "name": "",
          "type": "string"
        }
      ],
      "stateMutability": "view",
      "type": "function"
    },
    {
      "inputs": [],
      "name": "num",
      "outputs": [
        {
          "internalType": "int256",
          "name": "",
          "type": "int256"
        }
      ],
      "stateMutability": "view",
      "type": "function"
    },
    {
      "inputs": [],
      "name": "returnNum",
      "outputs": [
        {
          "internalType": "int256",
          "name": "",
          "type": "int256"
        }
      ],
      "stateMutability": "view",
      "type": "function"
    },
    {
      "inputs": [
        {
          "internalType": "string",
          "name": "_greeting",
          "type": "string"
        }
      ],
      "name": "setGreeting",
      "outputs": [],
      "stateMutability": "nonpayable",
      "type": "function"
    }
  ],
  "bytecode": "0x60806040523480156200001157600080fd5b5060405162000e9b38038062000e9b833981810160405281019062000037919062000280565b6200006760405180606001604052806022815260200162000e7960229139826200008f60201b620003621760201c565b80600090805190602001906200007f9291906200015e565b50600360018190555050620004cd565b620001318282604051602401620000a892919062000306565b6040516020818303038152906040527f4b5c4277000000000000000000000000000000000000000000000000000000007bffffffffffffffffffffffffffffffffffffffffffffffffffffffff19166020820180517bffffffffffffffffffffffffffffffffffffffffffffffffffffffff83818316178352505050506200013560201b60201c565b5050565b60008151905060006a636f6e736f6c652e6c6f679050602083016000808483855afa5050505050565b8280546200016c90620003f2565b90600052602060002090601f016020900481019282620001905760008555620001dc565b82601f10620001ab57805160ff1916838001178555620001dc565b82800160010185558215620001dc579182015b82811115620001db578251825591602001919060010190620001be565b5b509050620001eb9190620001ef565b5090565b5b808211156200020a576000816000905550600101620001f0565b5090565b6000620002256200021f846200036a565b62000341565b9050828152602081018484840111156200023e57600080fd5b6200024b848285620003bc565b509392505050565b600082601f8301126200026557600080fd5b8151620002778482602086016200020e565b91505092915050565b6000602082840312156200029357600080fd5b600082015167ffffffffffffffff811115620002ae57600080fd5b620002bc8482850162000253565b91505092915050565b6000620002d282620003a0565b620002de8185620003ab565b9350620002f0818560208601620003bc565b620002fb81620004bc565b840191505092915050565b60006040820190508181036000830152620003228185620002c5565b90508181036020830152620003388184620002c5565b90509392505050565b60006200034d62000360565b90506200035b828262000428565b919050565b6000604051905090565b600067ffffffffffffffff8211156200038857620003876200048d565b5b6200039382620004bc565b9050602081019050919050565b600081519050919050565b600082825260208201905092915050565b60005b83811015620003dc578082015181840152602081019050620003bf565b83811115620003ec576000848401525b50505050565b600060028204905060018216806200040b57607f821691505b602082108114156200042257620004216200045e565b5b50919050565b6200043382620004bc565b810181811067ffffffffffffffff821117156200045557620004546200048d565b5b80604052505050565b7f4e487b7100000000000000000000000000000000000000000000000000000000600052602260045260246000fd5b7f4e487b7100000000000000000000000000000000000000000000000000000000600052604160045260246000fd5b6000601f19601f8301169050919050565b61099c80620004dd6000396000f3fe608060405234801561001057600080fd5b50600436106100625760003560e01c8063051d7955146100675780634e70b1dc146100715780636ee77baa1461008f578063a4136862146100ad578063cfae3217146100c9578063ef690cc0146100e7575b600080fd5b61006f610105565b005b61007961016b565b60405161008691906106f3565b60405180910390f35b610097610171565b6040516100a491906106f3565b60405180910390f35b6100c760048036038101906100c2919061066a565b61017b565b005b6100d1610242565b6040516100de919061070e565b60405180910390f35b6100ef6102d4565b6040516100fc919061070e565b60405180910390f35b6101436040518060400160405280601581526020017f64656c6574696e6720746865206772656574696e6700000000000000000000008152506103fe565b604051806020016040528060008152506000908051906020019061016892919061055f565b50565b60015481565b6000600154905090565b61022860405180606001604052806023815260200161094460239139600080546101a490610871565b80601f01602080910402602001604051908101604052809291908181526020018280546101d090610871565b801561021d5780601f106101f25761010080835404028352916020019161021d565b820191906000526020600020905b81548152906001019060200180831161020057829003601f168201915b505050505083610497565b806000908051906020019061023e92919061055f565b5050565b60606000805461025190610871565b80601f016020809104026020016040519081016040528092919081815260200182805461027d90610871565b80156102ca5780601f1061029f576101008083540402835291602001916102ca565b820191906000526020600020905b8154815290600101906020018083116102ad57829003601f168201915b5050505050905090565b600080546102e190610871565b80601f016020809104026020016040519081016040528092919081815260200182805461030d90610871565b801561035a5780601f1061032f5761010080835404028352916020019161035a565b820191906000526020600020905b81548152906001019060200180831161033d57829003601f168201915b505050505081565b6103fa8282604051602401610378929190610730565b6040516020818303038152906040527f4b5c4277000000000000000000000000000000000000000000000000000000007bffffffffffffffffffffffffffffffffffffffffffffffffffffffff19166020820180517bffffffffffffffffffffffffffffffffffffffffffffffffffffffff8381831617835250505050610536565b5050565b61049481604051602401610412919061070e565b6040516020818303038152906040527f41304fac000000000000000000000000000000000000000000000000000000007bffffffffffffffffffffffffffffffffffffffffffffffffffffffff19166020820180517bffffffffffffffffffffffffffffffffffffffffffffffffffffffff8381831617835250505050610536565b50565b6105318383836040516024016104af93929190610767565b6040516020818303038152906040527f2ced7cef000000000000000000000000000000000000000000000000000000007bffffffffffffffffffffffffffffffffffffffffffffffffffffffff19166020820180517bffffffffffffffffffffffffffffffffffffffffffffffffffffffff8381831617835250505050610536565b505050565b60008151905060006a636f6e736f6c652e6c6f679050602083016000808483855afa5050505050565b82805461056b90610871565b90600052602060002090601f01602090048101928261058d57600085556105d4565b82601f106105a657805160ff19168380011785556105d4565b828001600101855582156105d4579182015b828111156105d35782518255916020019190600101906105b8565b5b5090506105e191906105e5565b5090565b5b808211156105fe5760008160009055506001016105e6565b5090565b6000610615610610846107d8565b6107b3565b90508281526020810184848401111561062d57600080fd5b61063884828561082f565b509392505050565b600082601f83011261065157600080fd5b8135610661848260208601610602565b91505092915050565b60006020828403121561067c57600080fd5b600082013567ffffffffffffffff81111561069657600080fd5b6106a284828501610640565b91505092915050565b6106b481610825565b82525050565b60006106c582610809565b6106cf8185610814565b93506106df81856020860161083e565b6106e881610932565b840191505092915050565b600060208201905061070860008301846106ab565b92915050565b6000602082019050818103600083015261072881846106ba565b905092915050565b6000604082019050818103600083015261074a81856106ba565b9050818103602083015261075e81846106ba565b90509392505050565b6000606082019050818103600083015261078181866106ba565b9050818103602083015261079581856106ba565b905081810360408301526107a981846106ba565b9050949350505050565b60006107bd6107ce565b90506107c982826108a3565b919050565b6000604051905090565b600067ffffffffffffffff8211156107f3576107f2610903565b5b6107fc82610932565b9050602081019050919050565b600081519050919050565b600082825260208201905092915050565b6000819050919050565b82818337600083830152505050565b60005b8381101561085c578082015181840152602081019050610841565b8381111561086b576000848401525b50505050565b6000600282049050600182168061088957607f821691505b6020821081141561089d5761089c6108d4565b5b50919050565b6108ac82610932565b810181811067ffffffffffffffff821117156108cb576108ca610903565b5b80604052505050565b7f4e487b7100000000000000000000000000000000000000000000000000000000600052602260045260246000fd5b7f4e487b7100000000000000000000000000000000000000000000000000000000600052604160045260246000fd5b6000601f19601f830116905091905056fe4368616e67696e67206772656574696e672066726f6d202725732720746f2027257327a26469706673582212208211598c5bbc4f8ee55a3aa62b9d1f4ea672b805980a25e479d8eed8e2b7ef2564736f6c634300080400334465706c6f79696e67206120477265657465722077697468206772656574696e673a",
  "linkReferences": {},
  "deployedLinkReferences": {}
}